{
	"data": {
		"bytecode": {
			"linkReferences": {},
			"object": "608060405260016000806101000a81548160ff021916908315150217905550602260015561014e600255603860035534801561003a57600080fd5b506102b58061004a6000396000f3fe608060405234801561001057600080fd5b50600436106100625760003560e01c8063164ab7e6146100675780631aa35610146100855780636257a38e146100a3578063673402e5146100c15780639d52f55a146100df578063f8aab238146100fd575b600080fd5b61006f61011b565b60405161007c919061020e565b60405180910390f35b61008d610121565b60405161009a919061020e565b60405180910390f35b6100ab610127565b6040516100b891906101bd565b60405180910390f35b6100c961013a565b6040516100d691906101f3565b60405180910390f35b6100e7610140565b6040516100f491906101a2565b60405180910390f35b610105610151565b60405161011291906101d8565b60405180910390f35b60035481565b60015481565b600560009054906101000a900460b01b81565b60025481565b60008054906101000a900460ff1681565b60045481565b61016081610229565b82525050565b61016f81610235565b82525050565b61017e81610261565b82525050565b61018d8161026b565b82525050565b61019c81610275565b82525050565b60006020820190506101b76000830184610157565b92915050565b60006020820190506101d26000830184610166565b92915050565b60006020820190506101ed6000830184610175565b92915050565b60006020820190506102086000830184610184565b92915050565b60006020820190506102236000830184610193565b92915050565b60008115159050919050565b60007fffffffffffffffffffff0000000000000000000000000000000000000000000082169050919050565b6000819050919050565b6000819050919050565b600081905091905056fea264697066735822122026d58294e20bf482aaad3d779526668afa01a41b9e8e13a795c895c24162283664736f6c63430008000033",
			"opcodes": "PUSH1 0x80 PUSH1 0x40 MSTORE PUSH1 0x1 PUSH1 0x0 DUP1 PUSH2 0x100 EXP DUP2 SLOAD DUP2 PUSH1 0xFF MUL NOT AND SWAP1 DUP4 ISZERO ISZERO MUL OR SWAP1 SSTORE POP PUSH1 0x22 PUSH1 0x1 SSTORE PUSH2 0x14E PUSH1 0x2 SSTORE PUSH1 0x38 PUSH1 0x3 SSTORE CALLVALUE DUP1 ISZERO PUSH2 0x3A JUMPI PUSH1 0x0 DUP1 REVERT JUMPDEST POP PUSH2 0x2B5 DUP1 PUSH2 0x4A PUSH1 0x0 CODECOPY PUSH1 0x0 RETURN INVALID PUSH1 0x80 PUSH1 0x40 MSTORE CALLVALUE DUP1 ISZERO PUSH2 0x10 JUMPI PUSH1 0x0 DUP1 REVERT JUMPDEST POP PUSH1 0x4 CALLDATASIZE LT PUSH2 0x62 JUMPI PUSH1 0x0 CALLDATALOAD PUSH1 0xE0 SHR DUP1 PUSH4 0x164AB7E6 EQ PUSH2 0x67 JUMPI DUP1 PUSH4 0x1AA35610 EQ PUSH2 0x85 JUMPI DUP1 PUSH4 0x6257A38E EQ PUSH2 0xA3 JUMPI DUP1 PUSH4 0x673402E5 EQ PUSH2 0xC1 JUMPI DUP1 PUSH4 0x9D52F55A EQ PUSH2 0xDF JUMPI DUP1 PUSH4 0xF8AAB238 EQ PUSH2 0xFD JUMPI JUMPDEST PUSH1 0x0 DUP1 REVERT JUMPDEST PUSH2 0x6F PUSH2 0x11B JUMP JUMPDEST PUSH1 0x40 MLOAD PUSH2 0x7C SWAP2 SWAP1 PUSH2 0x20E JUMP JUMPDEST PUSH1 0x40 MLOAD DUP1 SWAP2 SUB SWAP1 RETURN JUMPDEST PUSH2 0x8D PUSH2 0x121 JUMP JUMPDEST PUSH1 0x40 MLOAD PUSH2 0x9A SWAP2 SWAP1 PUSH2 0x20E JUMP JUMPDEST PUSH1 0x40 MLOAD DUP1 SWAP2 SUB SWAP1 RETURN JUMPDEST PUSH2 0xAB PUSH2 0x127 JUMP JUMPDEST PUSH1 0x40 MLOAD PUSH2 0xB8 SWAP2 SWAP1 PUSH2 0x1BD JUMP JUMPDEST PUSH1 0x40 MLOAD DUP1 SWAP2 SUB SWAP1 RETURN JUMPDEST PUSH2 0xC9 PUSH2 0x13A JUMP JUMPDEST PUSH1 0x40 MLOAD PUSH2 0xD6 SWAP2 SWAP1 PUSH2 0x1F3 JUMP JUMPDEST PUSH1 0x40 MLOAD DUP1 SWAP2 SUB SWAP1 RETURN JUMPDEST PUSH2 0xE7 PUSH2 0x140 JUMP JUMPDEST PUSH1 0x40 MLOAD PUSH2 0xF4 SWAP2 SWAP1 PUSH2 0x1A2 JUMP JUMPDEST PUSH1 0x40 MLOAD DUP1 SWAP2 SUB SWAP1 RETURN JUMPDEST PUSH2 0x105 PUSH2 0x151 JUMP JUMPDEST PUSH1 0x40 MLOAD PUSH2 0x112 SWAP2 SWAP1 PUSH2 0x1D8 JUMP JUMPDEST PUSH1 0x40 MLOAD DUP1 SWAP2 SUB SWAP1 RETURN JUMPDEST PUSH1 0x3 SLOAD DUP2 JUMP JUMPDEST PUSH1 0x1 SLOAD DUP2 JUMP JUMPDEST PUSH1 0x5 PUSH1 0x0 SWAP1 SLOAD SWAP1 PUSH2 0x100 EXP SWAP1 DIV PUSH1 0xB0 SHL DUP2 JUMP JUMPDEST PUSH1 0x2 SLOAD DUP2 JUMP JUMPDEST PUSH1 0x0 DUP1 SLOAD SWAP1 PUSH2 0x100 EXP SWAP1 DIV PUSH1 0xFF AND DUP2 JUMP JUMPDEST PUSH1 0x4 SLOAD DUP2 JUMP JUMPDEST PUSH2 0x160 DUP2 PUSH2 0x229 JUMP JUMPDEST DUP3 MSTORE POP POP JUMP JUMPDEST PUSH2 0x16F DUP2 PUSH2 0x235 JUMP JUMPDEST DUP3 MSTORE POP POP JUMP JUMPDEST PUSH2 0x17E DUP2 PUSH2 0x261 JUMP JUMPDEST DUP3 MSTORE POP POP JUMP JUMPDEST PUSH2 0x18D DUP2 PUSH2 0x26B JUMP JUMPDEST DUP3 MSTORE POP POP JUMP JUMPDEST PUSH2 0x19C DUP2 PUSH2 0x275 JUMP JUMPDEST DUP3 MSTORE POP POP JUMP JUMPDEST PUSH1 0x0 PUSH1 0x20 DUP3 ADD SWAP1 POP PUSH2 0x1B7 PUSH1 0x0 DUP4 ADD DUP5 PUSH2 0x157 JUMP JUMPDEST SWAP3 SWAP2 POP POP JUMP JUMPDEST PUSH1 0x0 PUSH1 0x20 DUP3 ADD SWAP1 POP PUSH2 0x1D2 PUSH1 0x0 DUP4 ADD DUP5 PUSH2 0x166 JUMP JUMPDEST SWAP3 SWAP2 POP POP JUMP JUMPDEST PUSH1 0x0 PUSH1 0x20 DUP3 ADD SWAP1 POP PUSH2 0x1ED PUSH1 0x0 DUP4 ADD DUP5 PUSH2 0x175 JUMP JUMPDEST SWAP3 SWAP2 POP POP JUMP JUMPDEST PUSH1 0x0 PUSH1 0x20 DUP3 ADD SWAP1 POP PUSH2 0x208 PUSH1 0x0 DUP4 ADD DUP5 PUSH2 0x184 JUMP JUMPDEST SWAP3 SWAP2 POP POP JUMP JUMPDEST PUSH1 0x0 PUSH1 0x20 DUP3 ADD SWAP1 POP PUSH2 0x223 PUSH1 0x0 DUP4 ADD DUP5 PUSH2 0x193 JUMP JUMPDEST SWAP3 SWAP2 POP POP JUMP JUMPDEST PUSH1 0x0 DUP2 ISZERO ISZERO SWAP1 POP SWAP2 SWAP1 POP JUMP JUMPDEST PUSH1 0x0 PUSH32 0xFFFFFFFFFFFFFFFFFFFF00000000000000000000000000000000000000000000 DUP3 AND SWAP1 POP SWAP2 SWAP1 POP JUMP JUMPDEST PUSH1 0x0 DUP2 SWAP1 POP SWAP2 SWAP1 POP JUMP JUMPDEST PUSH1 0x0 DUP2 SWAP1 POP SWAP2 SWAP1 POP JUMP JUMPDEST PUSH1 0x0 DUP2 SWAP1 POP SWAP2 SWAP1 POP JUMP INVALID LOG2 PUSH5 0x6970667358 0x22 SLT KECCAK256 0x26 0xD5 DUP3 SWAP5 0xE2 SIGNEXTEND DELEGATECALL DUP3 0xAA 0xAD RETURNDATASIZE PUSH24 0x9526668AFA01A41B9E8E13A795C895C24162283664736F6C PUSH4 0x43000800 STOP CALLER "
		},
		"gasEstimates": {
			"creation": {
				"codeDepositCost": "138600",
				"executionCost": "81068",
				"totalCost": "219668"
			},
			"external": {
				"b32()": "1217",
				"bol1()": "1234",
				"temp()": "1173",
				"temp2()": "1107",
				"u1()": "1129",
				"v3()": "1193"
			}
		},
		"methodIdentifiers": {
			"b32()": "f8aab238",
			"bol1()": "9d52f55a",
			"temp()": "673402e5",
			"temp2()": "164ab7e6",
			"u1()": "1aa35610",
			"v3()": "6257a38e"
		}
	},
	"abi": [
		{
			"inputs": [],
			"name": "b32",
			"outputs": [
				{
					"internalType": "bytes32",
					"name": "",
					"type": "bytes32"
				}
			],
			"stateMutability": "view",
			"type": "function"
		},
		{
			"inputs": [],
			"name": "bol1",
			"outputs": [
				{
					"internalType": "bool",
					"name": "",
					"type": "bool"
				}
			],
			"stateMutability": "view",
			"type": "function"
		},
		{
			"inputs": [],
			"name": "temp",
			"outputs": [
				{
					"internalType": "int256",
					"name": "",
					"type": "int256"
				}
			],
			"stateMutability": "view",
			"type": "function"
		},
		{
			"inputs": [],
			"name": "temp2",
			"outputs": [
				{
					"internalType": "uint256",
					"name": "",
					"type": "uint256"
				}
			],
			"stateMutability": "view",
			"type": "function"
		},
		{
			"inputs": [],
			"name": "u1",
			"outputs": [
				{
					"internalType": "uint256",
					"name": "",
					"type": "uint256"
				}
			],
			"stateMutability": "view",
			"type": "function"
		},
		{
			"inputs": [],
			"name": "v3",
			"outputs": [
				{
					"internalType": "bytes10",
					"name": "",
					"type": "bytes10"
				}
			],
			"stateMutability": "view",
			"type": "function"
		}
	]
}