{
	"data": {
		"bytecode": {
			"linkReferences": {},
			"object": "6080604052600c60005534801561001557600080fd5b506102cd806100256000396000f3fe608060405234801561001057600080fd5b506004361061004b5760003560e01c806235921a14610050578063262a9dff1461006e57806329fcda331461008c578063771602f7146100bc575b600080fd5b6100586100ec565b60405161006591906101ca565b60405180910390f35b61007661010b565b60405161008391906101ca565b60405180910390f35b6100a660048036038101906100a19190610155565b610111565b6040516100b391906101af565b60405180910390f35b6100d660048036038101906100d19190610155565b61012a565b6040516100e391906101ca565b60405180910390f35b6000600160008082825461010091906101e5565b925050819055905090565b60005481565b6000600a828461012191906101e5565b10905092915050565b6000818361013891906101e5565b905092915050565b60008135905061014f81610280565b92915050565b6000806040838503121561016857600080fd5b600061017685828601610140565b925050602061018785828601610140565b9150509250929050565b61019a8161023b565b82525050565b6101a981610247565b82525050565b60006020820190506101c46000830184610191565b92915050565b60006020820190506101df60008301846101a0565b92915050565b60006101f082610247565b91506101fb83610247565b9250827fffffffffffffffffffffffffffffffffffffffffffffffffffffffffffffffff038211156102305761022f610251565b5b828201905092915050565b60008115159050919050565b6000819050919050565b7f4e487b7100000000000000000000000000000000000000000000000000000000600052601160045260246000fd5b61028981610247565b811461029457600080fd5b5056fea26469706673582212209b9bc51ba16888e2871c5729ccce36b2f96a853696bc5c972bdd8d1c09d1243c64736f6c63430008000033",
			"opcodes": "PUSH1 0x80 PUSH1 0x40 MSTORE PUSH1 0xC PUSH1 0x0 SSTORE CALLVALUE DUP1 ISZERO PUSH2 0x15 JUMPI PUSH1 0x0 DUP1 REVERT JUMPDEST POP PUSH2 0x2CD DUP1 PUSH2 0x25 PUSH1 0x0 CODECOPY PUSH1 0x0 RETURN INVALID PUSH1 0x80 PUSH1 0x40 MSTORE CALLVALUE DUP1 ISZERO PUSH2 0x10 JUMPI PUSH1 0x0 DUP1 REVERT JUMPDEST POP PUSH1 0x4 CALLDATASIZE LT PUSH2 0x4B JUMPI PUSH1 0x0 CALLDATALOAD PUSH1 0xE0 SHR DUP1 PUSH3 0x35921A EQ PUSH2 0x50 JUMPI DUP1 PUSH4 0x262A9DFF EQ PUSH2 0x6E JUMPI DUP1 PUSH4 0x29FCDA33 EQ PUSH2 0x8C JUMPI DUP1 PUSH4 0x771602F7 EQ PUSH2 0xBC JUMPI JUMPDEST PUSH1 0x0 DUP1 REVERT JUMPDEST PUSH2 0x58 PUSH2 0xEC JUMP JUMPDEST PUSH1 0x40 MLOAD PUSH2 0x65 SWAP2 SWAP1 PUSH2 0x1CA JUMP JUMPDEST PUSH1 0x40 MLOAD DUP1 SWAP2 SUB SWAP1 RETURN JUMPDEST PUSH2 0x76 PUSH2 0x10B JUMP JUMPDEST PUSH1 0x40 MLOAD PUSH2 0x83 SWAP2 SWAP1 PUSH2 0x1CA JUMP JUMPDEST PUSH1 0x40 MLOAD DUP1 SWAP2 SUB SWAP1 RETURN JUMPDEST PUSH2 0xA6 PUSH1 0x4 DUP1 CALLDATASIZE SUB DUP2 ADD SWAP1 PUSH2 0xA1 SWAP2 SWAP1 PUSH2 0x155 JUMP JUMPDEST PUSH2 0x111 JUMP JUMPDEST PUSH1 0x40 MLOAD PUSH2 0xB3 SWAP2 SWAP1 PUSH2 0x1AF JUMP JUMPDEST PUSH1 0x40 MLOAD DUP1 SWAP2 SUB SWAP1 RETURN JUMPDEST PUSH2 0xD6 PUSH1 0x4 DUP1 CALLDATASIZE SUB DUP2 ADD SWAP1 PUSH2 0xD1 SWAP2 SWAP1 PUSH2 0x155 JUMP JUMPDEST PUSH2 0x12A JUMP JUMPDEST PUSH1 0x40 MLOAD PUSH2 0xE3 SWAP2 SWAP1 PUSH2 0x1CA JUMP JUMPDEST PUSH1 0x40 MLOAD DUP1 SWAP2 SUB SWAP1 RETURN JUMPDEST PUSH1 0x0 PUSH1 0x1 PUSH1 0x0 DUP1 DUP3 DUP3 SLOAD PUSH2 0x100 SWAP2 SWAP1 PUSH2 0x1E5 JUMP JUMPDEST SWAP3 POP POP DUP2 SWAP1 SSTORE SWAP1 POP SWAP1 JUMP JUMPDEST PUSH1 0x0 SLOAD DUP2 JUMP JUMPDEST PUSH1 0x0 PUSH1 0xA DUP3 DUP5 PUSH2 0x121 SWAP2 SWAP1 PUSH2 0x1E5 JUMP JUMPDEST LT SWAP1 POP SWAP3 SWAP2 POP POP JUMP JUMPDEST PUSH1 0x0 DUP2 DUP4 PUSH2 0x138 SWAP2 SWAP1 PUSH2 0x1E5 JUMP JUMPDEST SWAP1 POP SWAP3 SWAP2 POP POP JUMP JUMPDEST PUSH1 0x0 DUP2 CALLDATALOAD SWAP1 POP PUSH2 0x14F DUP2 PUSH2 0x280 JUMP JUMPDEST SWAP3 SWAP2 POP POP JUMP JUMPDEST PUSH1 0x0 DUP1 PUSH1 0x40 DUP4 DUP6 SUB SLT ISZERO PUSH2 0x168 JUMPI PUSH1 0x0 DUP1 REVERT JUMPDEST PUSH1 0x0 PUSH2 0x176 DUP6 DUP3 DUP7 ADD PUSH2 0x140 JUMP JUMPDEST SWAP3 POP POP PUSH1 0x20 PUSH2 0x187 DUP6 DUP3 DUP7 ADD PUSH2 0x140 JUMP JUMPDEST SWAP2 POP POP SWAP3 POP SWAP3 SWAP1 POP JUMP JUMPDEST PUSH2 0x19A DUP2 PUSH2 0x23B JUMP JUMPDEST DUP3 MSTORE POP POP JUMP JUMPDEST PUSH2 0x1A9 DUP2 PUSH2 0x247 JUMP JUMPDEST DUP3 MSTORE POP POP JUMP JUMPDEST PUSH1 0x0 PUSH1 0x20 DUP3 ADD SWAP1 POP PUSH2 0x1C4 PUSH1 0x0 DUP4 ADD DUP5 PUSH2 0x191 JUMP JUMPDEST SWAP3 SWAP2 POP POP JUMP JUMPDEST PUSH1 0x0 PUSH1 0x20 DUP3 ADD SWAP1 POP PUSH2 0x1DF PUSH1 0x0 DUP4 ADD DUP5 PUSH2 0x1A0 JUMP JUMPDEST SWAP3 SWAP2 POP POP JUMP JUMPDEST PUSH1 0x0 PUSH2 0x1F0 DUP3 PUSH2 0x247 JUMP JUMPDEST SWAP2 POP PUSH2 0x1FB DUP4 PUSH2 0x247 JUMP JUMPDEST SWAP3 POP DUP3 PUSH32 0xFFFFFFFFFFFFFFFFFFFFFFFFFFFFFFFFFFFFFFFFFFFFFFFFFFFFFFFFFFFFFFFF SUB DUP3 GT ISZERO PUSH2 0x230 JUMPI PUSH2 0x22F PUSH2 0x251 JUMP JUMPDEST JUMPDEST DUP3 DUP3 ADD SWAP1 POP SWAP3 SWAP2 POP POP JUMP JUMPDEST PUSH1 0x0 DUP2 ISZERO ISZERO SWAP1 POP SWAP2 SWAP1 POP JUMP JUMPDEST PUSH1 0x0 DUP2 SWAP1 POP SWAP2 SWAP1 POP JUMP JUMPDEST PUSH32 0x4E487B7100000000000000000000000000000000000000000000000000000000 PUSH1 0x0 MSTORE PUSH1 0x11 PUSH1 0x4 MSTORE PUSH1 0x24 PUSH1 0x0 REVERT JUMPDEST PUSH2 0x289 DUP2 PUSH2 0x247 JUMP JUMPDEST DUP2 EQ PUSH2 0x294 JUMPI PUSH1 0x0 DUP1 REVERT JUMPDEST POP JUMP INVALID LOG2 PUSH5 0x6970667358 0x22 SLT KECCAK256 SWAP12 SWAP12 0xC5 SHL LOG1 PUSH9 0x88E2871C5729CCCE36 0xB2 0xF9 PUSH11 0x853696BC5C972BDD8D1C09 0xD1 0x24 EXTCODECOPY PUSH5 0x736F6C6343 STOP ADDMOD STOP STOP CALLER "
		},
		"gasEstimates": {
			"creation": {
				"codeDepositCost": "143400",
				"executionCost": "20196",
				"totalCost": "163596"
			},
			"external": {
				"add(uint256,uint256)": "infinite",
				"add1()": "infinite",
				"add2(uint256,uint256)": "infinite",
				"age()": "1129"
			}
		},
		"methodIdentifiers": {
			"add(uint256,uint256)": "771602f7",
			"add1()": "0035921a",
			"add2(uint256,uint256)": "29fcda33",
			"age()": "262a9dff"
		}
	},
	"abi": [
		{
			"inputs": [
				{
					"internalType": "uint256",
					"name": "_x",
					"type": "uint256"
				},
				{
					"internalType": "uint256",
					"name": "_y",
					"type": "uint256"
				}
			],
			"name": "add",
			"outputs": [
				{
					"internalType": "uint256",
					"name": "",
					"type": "uint256"
				}
			],
			"stateMutability": "pure",
			"type": "function"
		},
		{
			"inputs": [],
			"name": "add1",
			"outputs": [
				{
					"internalType": "uint256",
					"name": "",
					"type": "uint256"
				}
			],
			"stateMutability": "nonpayable",
			"type": "function"
		},
		{
			"inputs": [
				{
					"internalType": "uint256",
					"name": "_z",
					"type": "uint256"
				},
				{
					"internalType": "uint256",
					"name": "_w",
					"type": "uint256"
				}
			],
			"name": "add2",
			"outputs": [
				{
					"internalType": "bool",
					"name": "",
					"type": "bool"
				}
			],
			"stateMutability": "pure",
			"type": "function"
		},
		{
			"inputs": [],
			"name": "age",
			"outputs": [
				{
					"internalType": "uint256",
					"name": "",
					"type": "uint256"
				}
			],
			"stateMutability": "view",
			"type": "function"
		}
	]
}