{
	"data": {
		"bytecode": {
			"linkReferences": {},
			"object": "608060405260196000556040518060400160405280600581526020017f726f68697400000000000000000000000000000000000000000000000000000081525060019080519060200190610054929190610067565b5034801561006157600080fd5b5061016b565b8280546100739061010a565b90600052602060002090601f01602090048101928261009557600085556100dc565b82601f106100ae57805160ff19168380011785556100dc565b828001600101855582156100dc579182015b828111156100db5782518255916020019190600101906100c0565b5b5090506100e991906100ed565b5090565b5b808211156101065760008160009055506001016100ee565b5090565b6000600282049050600182168061012257607f821691505b602082108114156101365761013561013c565b5b50919050565b7f4e487b7100000000000000000000000000000000000000000000000000000000600052602260045260246000fd5b6104a18061017a6000396000f3fe608060405234801561001057600080fd5b50600436106100415760003560e01c806306fdde0314610046578063262a9dff14610064578063b9392aa714610082575b600080fd5b61004e6100b3565b60405161005b919061027d565b60405180910390f35b61006c610141565b604051610079919061029f565b60405180910390f35b61009c600480360381019061009791906101e1565b610147565b6040516100aa9291906102ba565b60405180910390f35b600180546100c0906103b3565b80601f01602080910402602001604051908101604052809291908181526020018280546100ec906103b3565b80156101395780601f1061010e57610100808354040283529160200191610139565b820191906000526020600020905b81548152906001019060200180831161011c57829003601f168201915b505050505081565b60005481565b600060606000849050600084905081819350935050509250929050565b60006101776101728461031b565b6102ea565b90508281526020810184848401111561018f57600080fd5b61019a848285610371565b509392505050565b600082601f8301126101b357600080fd5b81356101c3848260208601610164565b91505092915050565b6000813590506101db81610454565b92915050565b600080604083850312156101f457600080fd5b6000610202858286016101cc565b925050602083013567ffffffffffffffff81111561021f57600080fd5b61022b858286016101a2565b9150509250929050565b60006102408261034b565b61024a8185610356565b935061025a818560208601610380565b61026381610443565b840191505092915050565b61027781610367565b82525050565b600060208201905081810360008301526102978184610235565b905092915050565b60006020820190506102b4600083018461026e565b92915050565b60006040820190506102cf600083018561026e565b81810360208301526102e18184610235565b90509392505050565b6000604051905081810181811067ffffffffffffffff8211171561031157610310610414565b5b8060405250919050565b600067ffffffffffffffff82111561033657610335610414565b5b601f19601f8301169050602081019050919050565b600081519050919050565b600082825260208201905092915050565b6000819050919050565b82818337600083830152505050565b60005b8381101561039e578082015181840152602081019050610383565b838111156103ad576000848401525b50505050565b600060028204905060018216806103cb57607f821691505b602082108114156103df576103de6103e5565b5b50919050565b7f4e487b7100000000000000000000000000000000000000000000000000000000600052602260045260246000fd5b7f4e487b7100000000000000000000000000000000000000000000000000000000600052604160045260246000fd5b6000601f19601f8301169050919050565b61045d81610367565b811461046857600080fd5b5056fea2646970667358221220092db1c6b9e915d6cad3065a5aa7c2c000f09fec8013b08e93f57e54f290c1f364736f6c63430008000033",
			"opcodes": "PUSH1 0x80 PUSH1 0x40 MSTORE PUSH1 0x19 PUSH1 0x0 SSTORE PUSH1 0x40 MLOAD DUP1 PUSH1 0x40 ADD PUSH1 0x40 MSTORE DUP1 PUSH1 0x5 DUP2 MSTORE PUSH1 0x20 ADD PUSH32 0x726F686974000000000000000000000000000000000000000000000000000000 DUP2 MSTORE POP PUSH1 0x1 SWAP1 DUP1 MLOAD SWAP1 PUSH1 0x20 ADD SWAP1 PUSH2 0x54 SWAP3 SWAP2 SWAP1 PUSH2 0x67 JUMP JUMPDEST POP CALLVALUE DUP1 ISZERO PUSH2 0x61 JUMPI PUSH1 0x0 DUP1 REVERT JUMPDEST POP PUSH2 0x16B JUMP JUMPDEST DUP3 DUP1 SLOAD PUSH2 0x73 SWAP1 PUSH2 0x10A JUMP JUMPDEST SWAP1 PUSH1 0x0 MSTORE PUSH1 0x20 PUSH1 0x0 KECCAK256 SWAP1 PUSH1 0x1F ADD PUSH1 0x20 SWAP1 DIV DUP2 ADD SWAP3 DUP3 PUSH2 0x95 JUMPI PUSH1 0x0 DUP6 SSTORE PUSH2 0xDC JUMP JUMPDEST DUP3 PUSH1 0x1F LT PUSH2 0xAE JUMPI DUP1 MLOAD PUSH1 0xFF NOT AND DUP4 DUP1 ADD OR DUP6 SSTORE PUSH2 0xDC JUMP JUMPDEST DUP3 DUP1 ADD PUSH1 0x1 ADD DUP6 SSTORE DUP3 ISZERO PUSH2 0xDC JUMPI SWAP2 DUP3 ADD JUMPDEST DUP3 DUP2 GT ISZERO PUSH2 0xDB JUMPI DUP3 MLOAD DUP3 SSTORE SWAP2 PUSH1 0x20 ADD SWAP2 SWAP1 PUSH1 0x1 ADD SWAP1 PUSH2 0xC0 JUMP JUMPDEST JUMPDEST POP SWAP1 POP PUSH2 0xE9 SWAP2 SWAP1 PUSH2 0xED JUMP JUMPDEST POP SWAP1 JUMP JUMPDEST JUMPDEST DUP1 DUP3 GT ISZERO PUSH2 0x106 JUMPI PUSH1 0x0 DUP2 PUSH1 0x0 SWAP1 SSTORE POP PUSH1 0x1 ADD PUSH2 0xEE JUMP JUMPDEST POP SWAP1 JUMP JUMPDEST PUSH1 0x0 PUSH1 0x2 DUP3 DIV SWAP1 POP PUSH1 0x1 DUP3 AND DUP1 PUSH2 0x122 JUMPI PUSH1 0x7F DUP3 AND SWAP2 POP JUMPDEST PUSH1 0x20 DUP3 LT DUP2 EQ ISZERO PUSH2 0x136 JUMPI PUSH2 0x135 PUSH2 0x13C JUMP JUMPDEST JUMPDEST POP SWAP2 SWAP1 POP JUMP JUMPDEST PUSH32 0x4E487B7100000000000000000000000000000000000000000000000000000000 PUSH1 0x0 MSTORE PUSH1 0x22 PUSH1 0x4 MSTORE PUSH1 0x24 PUSH1 0x0 REVERT JUMPDEST PUSH2 0x4A1 DUP1 PUSH2 0x17A PUSH1 0x0 CODECOPY PUSH1 0x0 RETURN INVALID PUSH1 0x80 PUSH1 0x40 MSTORE CALLVALUE DUP1 ISZERO PUSH2 0x10 JUMPI PUSH1 0x0 DUP1 REVERT JUMPDEST POP PUSH1 0x4 CALLDATASIZE LT PUSH2 0x41 JUMPI PUSH1 0x0 CALLDATALOAD PUSH1 0xE0 SHR DUP1 PUSH4 0x6FDDE03 EQ PUSH2 0x46 JUMPI DUP1 PUSH4 0x262A9DFF EQ PUSH2 0x64 JUMPI DUP1 PUSH4 0xB9392AA7 EQ PUSH2 0x82 JUMPI JUMPDEST PUSH1 0x0 DUP1 REVERT JUMPDEST PUSH2 0x4E PUSH2 0xB3 JUMP JUMPDEST PUSH1 0x40 MLOAD PUSH2 0x5B SWAP2 SWAP1 PUSH2 0x27D JUMP JUMPDEST PUSH1 0x40 MLOAD DUP1 SWAP2 SUB SWAP1 RETURN JUMPDEST PUSH2 0x6C PUSH2 0x141 JUMP JUMPDEST PUSH1 0x40 MLOAD PUSH2 0x79 SWAP2 SWAP1 PUSH2 0x29F JUMP JUMPDEST PUSH1 0x40 MLOAD DUP1 SWAP2 SUB SWAP1 RETURN JUMPDEST PUSH2 0x9C PUSH1 0x4 DUP1 CALLDATASIZE SUB DUP2 ADD SWAP1 PUSH2 0x97 SWAP2 SWAP1 PUSH2 0x1E1 JUMP JUMPDEST PUSH2 0x147 JUMP JUMPDEST PUSH1 0x40 MLOAD PUSH2 0xAA SWAP3 SWAP2 SWAP1 PUSH2 0x2BA JUMP JUMPDEST PUSH1 0x40 MLOAD DUP1 SWAP2 SUB SWAP1 RETURN JUMPDEST PUSH1 0x1 DUP1 SLOAD PUSH2 0xC0 SWAP1 PUSH2 0x3B3 JUMP JUMPDEST DUP1 PUSH1 0x1F ADD PUSH1 0x20 DUP1 SWAP2 DIV MUL PUSH1 0x20 ADD PUSH1 0x40 MLOAD SWAP1 DUP2 ADD PUSH1 0x40 MSTORE DUP1 SWAP3 SWAP2 SWAP1 DUP2 DUP2 MSTORE PUSH1 0x20 ADD DUP3 DUP1 SLOAD PUSH2 0xEC SWAP1 PUSH2 0x3B3 JUMP JUMPDEST DUP1 ISZERO PUSH2 0x139 JUMPI DUP1 PUSH1 0x1F LT PUSH2 0x10E JUMPI PUSH2 0x100 DUP1 DUP4 SLOAD DIV MUL DUP4 MSTORE SWAP2 PUSH1 0x20 ADD SWAP2 PUSH2 0x139 JUMP JUMPDEST DUP3 ADD SWAP2 SWAP1 PUSH1 0x0 MSTORE PUSH1 0x20 PUSH1 0x0 KECCAK256 SWAP1 JUMPDEST DUP2 SLOAD DUP2 MSTORE SWAP1 PUSH1 0x1 ADD SWAP1 PUSH1 0x20 ADD DUP1 DUP4 GT PUSH2 0x11C JUMPI DUP3 SWAP1 SUB PUSH1 0x1F AND DUP3 ADD SWAP2 JUMPDEST POP POP POP POP POP DUP2 JUMP JUMPDEST PUSH1 0x0 SLOAD DUP2 JUMP JUMPDEST PUSH1 0x0 PUSH1 0x60 PUSH1 0x0 DUP5 SWAP1 POP PUSH1 0x0 DUP5 SWAP1 POP DUP2 DUP2 SWAP4 POP SWAP4 POP POP POP SWAP3 POP SWAP3 SWAP1 POP JUMP JUMPDEST PUSH1 0x0 PUSH2 0x177 PUSH2 0x172 DUP5 PUSH2 0x31B JUMP JUMPDEST PUSH2 0x2EA JUMP JUMPDEST SWAP1 POP DUP3 DUP2 MSTORE PUSH1 0x20 DUP2 ADD DUP5 DUP5 DUP5 ADD GT ISZERO PUSH2 0x18F JUMPI PUSH1 0x0 DUP1 REVERT JUMPDEST PUSH2 0x19A DUP5 DUP3 DUP6 PUSH2 0x371 JUMP JUMPDEST POP SWAP4 SWAP3 POP POP POP JUMP JUMPDEST PUSH1 0x0 DUP3 PUSH1 0x1F DUP4 ADD SLT PUSH2 0x1B3 JUMPI PUSH1 0x0 DUP1 REVERT JUMPDEST DUP2 CALLDATALOAD PUSH2 0x1C3 DUP5 DUP3 PUSH1 0x20 DUP7 ADD PUSH2 0x164 JUMP JUMPDEST SWAP2 POP POP SWAP3 SWAP2 POP POP JUMP JUMPDEST PUSH1 0x0 DUP2 CALLDATALOAD SWAP1 POP PUSH2 0x1DB DUP2 PUSH2 0x454 JUMP JUMPDEST SWAP3 SWAP2 POP POP JUMP JUMPDEST PUSH1 0x0 DUP1 PUSH1 0x40 DUP4 DUP6 SUB SLT ISZERO PUSH2 0x1F4 JUMPI PUSH1 0x0 DUP1 REVERT JUMPDEST PUSH1 0x0 PUSH2 0x202 DUP6 DUP3 DUP7 ADD PUSH2 0x1CC JUMP JUMPDEST SWAP3 POP POP PUSH1 0x20 DUP4 ADD CALLDATALOAD PUSH8 0xFFFFFFFFFFFFFFFF DUP2 GT ISZERO PUSH2 0x21F JUMPI PUSH1 0x0 DUP1 REVERT JUMPDEST PUSH2 0x22B DUP6 DUP3 DUP7 ADD PUSH2 0x1A2 JUMP JUMPDEST SWAP2 POP POP SWAP3 POP SWAP3 SWAP1 POP JUMP JUMPDEST PUSH1 0x0 PUSH2 0x240 DUP3 PUSH2 0x34B JUMP JUMPDEST PUSH2 0x24A DUP2 DUP6 PUSH2 0x356 JUMP JUMPDEST SWAP4 POP PUSH2 0x25A DUP2 DUP6 PUSH1 0x20 DUP7 ADD PUSH2 0x380 JUMP JUMPDEST PUSH2 0x263 DUP2 PUSH2 0x443 JUMP JUMPDEST DUP5 ADD SWAP2 POP POP SWAP3 SWAP2 POP POP JUMP JUMPDEST PUSH2 0x277 DUP2 PUSH2 0x367 JUMP JUMPDEST DUP3 MSTORE POP POP JUMP JUMPDEST PUSH1 0x0 PUSH1 0x20 DUP3 ADD SWAP1 POP DUP2 DUP2 SUB PUSH1 0x0 DUP4 ADD MSTORE PUSH2 0x297 DUP2 DUP5 PUSH2 0x235 JUMP JUMPDEST SWAP1 POP SWAP3 SWAP2 POP POP JUMP JUMPDEST PUSH1 0x0 PUSH1 0x20 DUP3 ADD SWAP1 POP PUSH2 0x2B4 PUSH1 0x0 DUP4 ADD DUP5 PUSH2 0x26E JUMP JUMPDEST SWAP3 SWAP2 POP POP JUMP JUMPDEST PUSH1 0x0 PUSH1 0x40 DUP3 ADD SWAP1 POP PUSH2 0x2CF PUSH1 0x0 DUP4 ADD DUP6 PUSH2 0x26E JUMP JUMPDEST DUP2 DUP2 SUB PUSH1 0x20 DUP4 ADD MSTORE PUSH2 0x2E1 DUP2 DUP5 PUSH2 0x235 JUMP JUMPDEST SWAP1 POP SWAP4 SWAP3 POP POP POP JUMP JUMPDEST PUSH1 0x0 PUSH1 0x40 MLOAD SWAP1 POP DUP2 DUP2 ADD DUP2 DUP2 LT PUSH8 0xFFFFFFFFFFFFFFFF DUP3 GT OR ISZERO PUSH2 0x311 JUMPI PUSH2 0x310 PUSH2 0x414 JUMP JUMPDEST JUMPDEST DUP1 PUSH1 0x40 MSTORE POP SWAP2 SWAP1 POP JUMP JUMPDEST PUSH1 0x0 PUSH8 0xFFFFFFFFFFFFFFFF DUP3 GT ISZERO PUSH2 0x336 JUMPI PUSH2 0x335 PUSH2 0x414 JUMP JUMPDEST JUMPDEST PUSH1 0x1F NOT PUSH1 0x1F DUP4 ADD AND SWAP1 POP PUSH1 0x20 DUP2 ADD SWAP1 POP SWAP2 SWAP1 POP JUMP JUMPDEST PUSH1 0x0 DUP2 MLOAD SWAP1 POP SWAP2 SWAP1 POP JUMP JUMPDEST PUSH1 0x0 DUP3 DUP3 MSTORE PUSH1 0x20 DUP3 ADD SWAP1 POP SWAP3 SWAP2 POP POP JUMP JUMPDEST PUSH1 0x0 DUP2 SWAP1 POP SWAP2 SWAP1 POP JUMP JUMPDEST DUP3 DUP2 DUP4 CALLDATACOPY PUSH1 0x0 DUP4 DUP4 ADD MSTORE POP POP POP JUMP JUMPDEST PUSH1 0x0 JUMPDEST DUP4 DUP2 LT ISZERO PUSH2 0x39E JUMPI DUP1 DUP3 ADD MLOAD DUP2 DUP5 ADD MSTORE PUSH1 0x20 DUP2 ADD SWAP1 POP PUSH2 0x383 JUMP JUMPDEST DUP4 DUP2 GT ISZERO PUSH2 0x3AD JUMPI PUSH1 0x0 DUP5 DUP5 ADD MSTORE JUMPDEST POP POP POP POP JUMP JUMPDEST PUSH1 0x0 PUSH1 0x2 DUP3 DIV SWAP1 POP PUSH1 0x1 DUP3 AND DUP1 PUSH2 0x3CB JUMPI PUSH1 0x7F DUP3 AND SWAP2 POP JUMPDEST PUSH1 0x20 DUP3 LT DUP2 EQ ISZERO PUSH2 0x3DF JUMPI PUSH2 0x3DE PUSH2 0x3E5 JUMP JUMPDEST JUMPDEST POP SWAP2 SWAP1 POP JUMP JUMPDEST PUSH32 0x4E487B7100000000000000000000000000000000000000000000000000000000 PUSH1 0x0 MSTORE PUSH1 0x22 PUSH1 0x4 MSTORE PUSH1 0x24 PUSH1 0x0 REVERT JUMPDEST PUSH32 0x4E487B7100000000000000000000000000000000000000000000000000000000 PUSH1 0x0 MSTORE PUSH1 0x41 PUSH1 0x4 MSTORE PUSH1 0x24 PUSH1 0x0 REVERT JUMPDEST PUSH1 0x0 PUSH1 0x1F NOT PUSH1 0x1F DUP4 ADD AND SWAP1 POP SWAP2 SWAP1 POP JUMP JUMPDEST PUSH2 0x45D DUP2 PUSH2 0x367 JUMP JUMPDEST DUP2 EQ PUSH2 0x468 JUMPI PUSH1 0x0 DUP1 REVERT JUMPDEST POP JUMP INVALID LOG2 PUSH5 0x6970667358 0x22 SLT KECCAK256 MULMOD 0x2D 0xB1 0xC6 0xB9 0xE9 ISZERO 0xD6 0xCA 0xD3 MOD GAS GAS 0xA7 0xC2 0xC0 STOP CREATE SWAP16 0xEC DUP1 SGT 0xB0 DUP15 SWAP4 CREATE2 PUSH31 0x54F290C1F364736F6C63430008000033000000000000000000000000000000 "
		},
		"gasEstimates": {
			"creation": {
				"codeDepositCost": "237000",
				"executionCost": "infinite",
				"totalCost": "infinite"
			},
			"external": {
				"age()": "1129",
				"app(uint256,string)": "infinite",
				"name()": "infinite"
			}
		},
		"methodIdentifiers": {
			"age()": "262a9dff",
			"app(uint256,string)": "b9392aa7",
			"name()": "06fdde03"
		}
	},
	"abi": [
		{
			"inputs": [],
			"name": "age",
			"outputs": [
				{
					"internalType": "uint256",
					"name": "",
					"type": "uint256"
				}
			],
			"stateMutability": "view",
			"type": "function"
		},
		{
			"inputs": [
				{
					"internalType": "uint256",
					"name": "_x",
					"type": "uint256"
				},
				{
					"internalType": "string",
					"name": "_y",
					"type": "string"
				}
			],
			"name": "app",
			"outputs": [
				{
					"internalType": "uint256",
					"name": "",
					"type": "uint256"
				},
				{
					"internalType": "string",
					"name": "",
					"type": "string"
				}
			],
			"stateMutability": "pure",
			"type": "function"
		},
		{
			"inputs": [],
			"name": "name",
			"outputs": [
				{
					"internalType": "string",
					"name": "",
					"type": "string"
				}
			],
			"stateMutability": "view",
			"type": "function"
		}
	]
}