{
	"data": {
		"bytecode": {
			"linkReferences": {},
			"object": "6080604052600a60005534801561001557600080fd5b5061026d806100256000396000f3fe608060405234801561001057600080fd5b50600436106100575760003560e01c8063262a9dff1461005c5780637ef0cdea1461007a578063c37a056214610098578063f076205e146100a2578063f4f3e72c146100c0575b600080fd5b6100646100f0565b6040516100719190610176565b60405180910390f35b6100826100f6565b60405161008f9190610176565b60405180910390f35b6100a06100ff565b005b6100aa610116565b6040516100b79190610176565b60405180910390f35b6100da60048036038101906100d5919061013e565b61011f565b6040516100e79190610176565b60405180910390f35b60005481565b60008054905090565b606460005461010e9190610191565b600081905550565b60006001905090565b6000819050919050565b60008135905061013881610220565b92915050565b60006020828403121561015057600080fd5b600061015e84828501610129565b91505092915050565b610170816101e7565b82525050565b600060208201905061018b6000830184610167565b92915050565b600061019c826101e7565b91506101a7836101e7565b9250827fffffffffffffffffffffffffffffffffffffffffffffffffffffffffffffffff038211156101dc576101db6101f1565b5b828201905092915050565b6000819050919050565b7f4e487b7100000000000000000000000000000000000000000000000000000000600052601160045260246000fd5b610229816101e7565b811461023457600080fd5b5056fea2646970667358221220fea20b7e427fcfea28919299f18c1409d65ff6baf9bd4c169445dfffc22b57e964736f6c63430008000033",
			"opcodes": "PUSH1 0x80 PUSH1 0x40 MSTORE PUSH1 0xA PUSH1 0x0 SSTORE CALLVALUE DUP1 ISZERO PUSH2 0x15 JUMPI PUSH1 0x0 DUP1 REVERT JUMPDEST POP PUSH2 0x26D DUP1 PUSH2 0x25 PUSH1 0x0 CODECOPY PUSH1 0x0 RETURN INVALID PUSH1 0x80 PUSH1 0x40 MSTORE CALLVALUE DUP1 ISZERO PUSH2 0x10 JUMPI PUSH1 0x0 DUP1 REVERT JUMPDEST POP PUSH1 0x4 CALLDATASIZE LT PUSH2 0x57 JUMPI PUSH1 0x0 CALLDATALOAD PUSH1 0xE0 SHR DUP1 PUSH4 0x262A9DFF EQ PUSH2 0x5C JUMPI DUP1 PUSH4 0x7EF0CDEA EQ PUSH2 0x7A JUMPI DUP1 PUSH4 0xC37A0562 EQ PUSH2 0x98 JUMPI DUP1 PUSH4 0xF076205E EQ PUSH2 0xA2 JUMPI DUP1 PUSH4 0xF4F3E72C EQ PUSH2 0xC0 JUMPI JUMPDEST PUSH1 0x0 DUP1 REVERT JUMPDEST PUSH2 0x64 PUSH2 0xF0 JUMP JUMPDEST PUSH1 0x40 MLOAD PUSH2 0x71 SWAP2 SWAP1 PUSH2 0x176 JUMP JUMPDEST PUSH1 0x40 MLOAD DUP1 SWAP2 SUB SWAP1 RETURN JUMPDEST PUSH2 0x82 PUSH2 0xF6 JUMP JUMPDEST PUSH1 0x40 MLOAD PUSH2 0x8F SWAP2 SWAP1 PUSH2 0x176 JUMP JUMPDEST PUSH1 0x40 MLOAD DUP1 SWAP2 SUB SWAP1 RETURN JUMPDEST PUSH2 0xA0 PUSH2 0xFF JUMP JUMPDEST STOP JUMPDEST PUSH2 0xAA PUSH2 0x116 JUMP JUMPDEST PUSH1 0x40 MLOAD PUSH2 0xB7 SWAP2 SWAP1 PUSH2 0x176 JUMP JUMPDEST PUSH1 0x40 MLOAD DUP1 SWAP2 SUB SWAP1 RETURN JUMPDEST PUSH2 0xDA PUSH1 0x4 DUP1 CALLDATASIZE SUB DUP2 ADD SWAP1 PUSH2 0xD5 SWAP2 SWAP1 PUSH2 0x13E JUMP JUMPDEST PUSH2 0x11F JUMP JUMPDEST PUSH1 0x40 MLOAD PUSH2 0xE7 SWAP2 SWAP1 PUSH2 0x176 JUMP JUMPDEST PUSH1 0x40 MLOAD DUP1 SWAP2 SUB SWAP1 RETURN JUMPDEST PUSH1 0x0 SLOAD DUP2 JUMP JUMPDEST PUSH1 0x0 DUP1 SLOAD SWAP1 POP SWAP1 JUMP JUMPDEST PUSH1 0x64 PUSH1 0x0 SLOAD PUSH2 0x10E SWAP2 SWAP1 PUSH2 0x191 JUMP JUMPDEST PUSH1 0x0 DUP2 SWAP1 SSTORE POP JUMP JUMPDEST PUSH1 0x0 PUSH1 0x1 SWAP1 POP SWAP1 JUMP JUMPDEST PUSH1 0x0 DUP2 SWAP1 POP SWAP2 SWAP1 POP JUMP JUMPDEST PUSH1 0x0 DUP2 CALLDATALOAD SWAP1 POP PUSH2 0x138 DUP2 PUSH2 0x220 JUMP JUMPDEST SWAP3 SWAP2 POP POP JUMP JUMPDEST PUSH1 0x0 PUSH1 0x20 DUP3 DUP5 SUB SLT ISZERO PUSH2 0x150 JUMPI PUSH1 0x0 DUP1 REVERT JUMPDEST PUSH1 0x0 PUSH2 0x15E DUP5 DUP3 DUP6 ADD PUSH2 0x129 JUMP JUMPDEST SWAP2 POP POP SWAP3 SWAP2 POP POP JUMP JUMPDEST PUSH2 0x170 DUP2 PUSH2 0x1E7 JUMP JUMPDEST DUP3 MSTORE POP POP JUMP JUMPDEST PUSH1 0x0 PUSH1 0x20 DUP3 ADD SWAP1 POP PUSH2 0x18B PUSH1 0x0 DUP4 ADD DUP5 PUSH2 0x167 JUMP JUMPDEST SWAP3 SWAP2 POP POP JUMP JUMPDEST PUSH1 0x0 PUSH2 0x19C DUP3 PUSH2 0x1E7 JUMP JUMPDEST SWAP2 POP PUSH2 0x1A7 DUP4 PUSH2 0x1E7 JUMP JUMPDEST SWAP3 POP DUP3 PUSH32 0xFFFFFFFFFFFFFFFFFFFFFFFFFFFFFFFFFFFFFFFFFFFFFFFFFFFFFFFFFFFFFFFF SUB DUP3 GT ISZERO PUSH2 0x1DC JUMPI PUSH2 0x1DB PUSH2 0x1F1 JUMP JUMPDEST JUMPDEST DUP3 DUP3 ADD SWAP1 POP SWAP3 SWAP2 POP POP JUMP JUMPDEST PUSH1 0x0 DUP2 SWAP1 POP SWAP2 SWAP1 POP JUMP JUMPDEST PUSH32 0x4E487B7100000000000000000000000000000000000000000000000000000000 PUSH1 0x0 MSTORE PUSH1 0x11 PUSH1 0x4 MSTORE PUSH1 0x24 PUSH1 0x0 REVERT JUMPDEST PUSH2 0x229 DUP2 PUSH2 0x1E7 JUMP JUMPDEST DUP2 EQ PUSH2 0x234 JUMPI PUSH1 0x0 DUP1 REVERT JUMPDEST POP JUMP INVALID LOG2 PUSH5 0x6970667358 0x22 SLT KECCAK256 INVALID LOG2 SIGNEXTEND PUSH31 0x427FCFEA28919299F18C1409D65FF6BAF9BD4C169445DFFFC22B57E964736F PUSH13 0x63430008000033000000000000 "
		},
		"gasEstimates": {
			"creation": {
				"codeDepositCost": "124200",
				"executionCost": "20177",
				"totalCost": "144377"
			},
			"external": {
				"age()": "1107",
				"puref()": "381",
				"purefun(uint256)": "infinite",
				"simplef()": "infinite",
				"viewf()": "1137"
			}
		},
		"methodIdentifiers": {
			"age()": "262a9dff",
			"puref()": "f076205e",
			"purefun(uint256)": "f4f3e72c",
			"simplef()": "c37a0562",
			"viewf()": "7ef0cdea"
		}
	},
	"abi": [
		{
			"inputs": [],
			"name": "age",
			"outputs": [
				{
					"internalType": "uint256",
					"name": "",
					"type": "uint256"
				}
			],
			"stateMutability": "view",
			"type": "function"
		},
		{
			"inputs": [],
			"name": "puref",
			"outputs": [
				{
					"internalType": "uint256",
					"name": "",
					"type": "uint256"
				}
			],
			"stateMutability": "pure",
			"type": "function"
		},
		{
			"inputs": [
				{
					"internalType": "uint256",
					"name": "_x",
					"type": "uint256"
				}
			],
			"name": "purefun",
			"outputs": [
				{
					"internalType": "uint256",
					"name": "",
					"type": "uint256"
				}
			],
			"stateMutability": "pure",
			"type": "function"
		},
		{
			"inputs": [],
			"name": "simplef",
			"outputs": [],
			"stateMutability": "nonpayable",
			"type": "function"
		},
		{
			"inputs": [],
			"name": "viewf",
			"outputs": [
				{
					"internalType": "uint256",
					"name": "",
					"type": "uint256"
				}
			],
			"stateMutability": "view",
			"type": "function"
		}
	]
}